:100000000C9434000C9453000C9451000C94510047
:100010000C9451000C9451000C9451000C9451001C
:100020000C9451000C9451000C9451000C9451000C
:100030000C9451000C9451000C9451000C945100FC
:100040000C9451000C9451000C9451000C945100EC
:100050000C9451000C9451000C9451000C945100DC
:100060000C9451000C94510011241FBECFEFD8E026
:10007000DEBFCDBF11E0A0E0B1E0E8EBF4E002C0EC
:1000800005900D92AE31B107D9F721E0AEE1B1E0B4
:1000900001C01D92A032B207E1F70E94B3000C9498
:1000A0005A020C9400001F920F920FB60F92112467
:1000B0002F933F934F935F936F937F938F939F9370
:1000C000AF93BF93EF93FF932091850080918400BD
:1000D00090E0922B90931F0180931E011092850057
:1000E0001092840020911E0130911F0140E050E0E9
:1000F00060E472E48FE090E00E94F000CA01B90170
:100100000E94A50120E030E040EF50E40E94310160
:1001100020E030E040E85FE30E943102181614F45A
:10012000289A01C02898FF91EF91BF91AF919F91BC
:100130008F917F916F915F914F913F912F910F9090
:100140000FBE0F901F901895E89A81E08093690088
:1001500078940895E0E8F0E080818083E1E8F0E0C1
:1001600080818083089581E084B91AB815B81BB8DE
:100170000E94A4000E94AA000E94C50080E091E0B5
:100180000E94DD0085E191E0FBCF1092C5008CE07C
:100190008093C400E0ECF0E080818260808388E19D
:1001A0008093C10086E08093C20008959091C000C2
:1001B00095FFFCCF8093C60008950F931F93CF93B4
:1001C0008C01C0E0F801EC0FF11D8081882321F043
:1001D0000E94D600CF5FF6CFCF911F910F91089567
:1001E000052E97FB1EF400940E94070157FD07D0CF
:1001F0000E940F0107FC03D04EF40C9407015095A8
:100200004095309521953F4F4F4F5F4F0895909502
:100210008095709561957F4F8F4F9F4F0895A1E214
:100220001A2EAA1BBB1BFD010DC0AA1FBB1FEE1F70
:10023000FF1FA217B307E407F50720F0A21BB30BBB
:10024000E40BF50B661F771F881F991F1A9469F737
:1002500060957095809590959B01AC01BD01CF0193
:1002600008950E9445010C94F7010E94F00158F096
:100270000E94E90140F029F45F3F29F00C94E0016D
:1002800051110C942B020C94E6010E94080268F3B1
:100290009923B1F3552391F3951B550BBB27AA273F
:1002A00062177307840738F09F5F5F4F220F331F79
:1002B000441FAA1FA9F335D00E2E3AF0E0E832D041
:1002C00091505040E695001CCAF72BD0FE2F29D044
:1002D000660F771F881FBB1F261737074807AB0716
:1002E000B0E809F0BB0B802DBF01FF2793585F4F8B
:1002F0003AF09E3F510578F00C94E0010C942B02EB
:100300005F3FE4F3983ED4F3869577956795B7956C
:10031000F7959F5FC9F7880F911D9695879597F977
:100320000895E1E0660F771F881FBB1F62177307F0
:100330008407BA0720F0621B730B840BBA0BEE1F05
:1003400088F7E0950895E89409C097FB3EF49095EE
:100350008095709561957F4F8F4F9F4F9923A9F09E
:10036000F92F96E9BB279395F6958795779567952D
:10037000B795F111F8CFFAF4BB0F11F460FF1BC071
:100380006F5F7F4F8F4F9F4F16C0882311F096E904
:1003900011C0772321F09EE8872F762F05C06623B2
:1003A00071F096E8862F70E060E02AF09A95660F6B
:1003B000771F881FDAF7880F9695879597F9089524
:1003C00097F99F6780E870E060E008959FEF80EC08
:1003D000089500240A9416161706180609060895AB
:1003E00000240A9412161306140605060895092E11
:1003F0000394000C11F4882352F0BB0F40F4BF2B80
:1004000011F460FF04C06F5F7F4F8F4F9F4F0895BF
:1004100057FD9058440F551F59F05F3F71F04795B5
:10042000880F97FB991F61F09F3F79F0879508959A
:10043000121613061406551FF2CF4695F1DF08C0B9
:10044000161617061806991FF1CF869571056105D6
:1004500008940895E894BB2766277727CB0197F97E
:1004600008950E94360208F48FEF0895990F00084E
:10047000550FAA0BE0E8FEEF16161706E807F90776
:10048000C0F012161306E407F50798F0621B730B11
:10049000840B950B39F40A2661F0232B242B252B92
:1004A00021F408950A2609F4A140A6958FEF811D35
:0804B000811D0895F894FFCFAF
:1004B8000D0A446F6573207468697320776F726BD7
:0E04C8003F2E2E2E000D0A5465737421000085
:00000001FF
